:100EFB0004104617B8000418437F0000040C457615
:0E0F0B00E0000408439513330414461C400014
:100E4A00C280C281C282D2B77590FF758920759817
:060E5A0050758DFDD28EE3
:100E6000120EB18F217E00C3EF941E7480948050C7
:100E700008D280C281C282802FC3EF941EEE6480AC
:100E800094804013D3EF945AEE648094805008D23B
:100E900081C280C2828011D3EF945AEE6480948024
:0F0EA0004006D282C280C2817F967E00120F1A56
:020EAF0080AF12
:100EB100D2B5C2B67F327E00120F1AD2B620B7FD6C
:100EC100C2B5AF90120D0D120ADC8F22120ED8AFEF
:060ED10022EF3395E0FE64
:010ED70022F8
:020D0D00AB0732
:100D0F00E4F526F525F524F523F52AF529F528F53B
:100D1F0027FEFDAF03AC07120AA8A804A905AA066F
:100D2F00AB07AF1BAE1AAD19AC18120A01E4FBFAF0
:100D3F00798078BF120807AB13AA12A911A8101255
:100D4F0008F88F268E258D248C23AB17AA16A9158C
:100D5F00A814120A01120C0CAB0BAA0AA909A808B5
:100D6F001208F8AB0FAA0EA90DA80C120807C004A1
:100D7F00C005C006C007AF0BAE0AAD09AC08AB0F7C
:100D8F00AA0EA90DA80C1208F8D003D002D001D0DA
:100D9F0000120A018F2A8E298D288C277F337E938C
:0F0DAF007D887CC3AB2AAA29A928A82702080798
:020ED800AE0763
:100EDA00EE75F00A842430FFEE75F00A8485F0235B
:100EEA0074302523F5237524DF120F27AF23020F51
:010EFA0027D0
:080F27008F993099FDC2992257
:0C0F1A00E4FDEDC39FE49E50030D80F643
:010F260022A8
:10080000020B48E86480F8E933E83360110460F0D3
:10081000ED33EC337009E8FCE9FDEAFEEBFF22045E
:1008200060DED3EB9FEA9EE99DE8C2E78CF0C2F759
:1008300095F0400CE8CCF8E9CDF9EACEFAEBCFFB25
:10084000120B1385D0F05804700320D5B3E8047060
:10085000075002B2D5020B5292D5EC0460F7E4CCFB
:10086000C0E0C398F8603B94186008400DD0E0FBEE
:10087000020B2AE4FBFAC9FC8028E830E406E4C94C
:10088000FBE4CAFCE830E305E4C9CACBFCE8540742
:100890006010F8C3E913F9EA13FAEB13FBEC13FC4D
:1008A000D8F130F52FC3E49CFCEF9BFFEE9AFEEDF0
:1008B00099FDD0E0FBEF4E4D4C701222DB03020B92
:1008C0004FEC2CFCEF33FFEE33FEED33FDED30E764
:1008D000EB020B2AEF2BFFEE3AFEED39FDD0E0FBE9
:1008E00050130BBB0003020B52ED13FDEE13FEEF92
:0808F00013FFEC13FC020B2ABC
:1008F800EC4D6011E8497017ED33EC3304600DE4FA
:10090800FCFFFEFD22E933E8330470F8020B4812BD
:100918000B1358046009E4CC2481500628500902BE
:100928000B52284003020B4FC0E0EB4A7044B980D9
:1009380006D0E0FB020B3EEF4E701CBD8008EBFFBB
:10094800EAFEE9FD80EBE98DF0A4FEE5F00209E19D
:10095800E9CDF9EAFEEBFFEF89F0A4FCE5F0CE89DA
:10096800F0A42EFFE435F0CD89F0A42DFEE435F097
:100978008067EF4E7005BD80D780C3EF8BF0A4ACC5
:10098800F0EE8BF0A42CFCE435F0F8EF8AF0A42C00
:10099800E5F038FCE433CB8DF0A42CFCE5F03BF813
:1009A800EE8AF0A42CFCE5F038F8E433CF89F0A403
:1009B8002CFCE5F038CF3400CE89F0A42FFFE5F009
:1009C8003EFEE433C98DF0A42EFEE5F039CD8AF061
:1009D800A42FFFE5F03EFEE43DFD33D0E0FB5007D9
:1009E8000BBB000F020B52EC2CFCEF33FFEE33FE77
:0609F800ED33FD020B2AA5
:1009FE00020B52EC5D046005E859047003020B48CB
:100A0E00120B13580460F6EC4860F2EC7004FDFE15
:100A1E00FF22C860DB2481C85009C39860025006CB
:100A2E00020B4F9850CAF582E9294B4A7005AB82EA
:100A3E00020B3E75F0007C1A7880C3EF9BEE9AEDA8
:100A4E0099400DC3EF9BFFEE9AFEED99FDE842F043
:100A5E00DC23ACF0D0E0FFD0E0FED0E0FDAB822096
:100A6E00E7101BEB60BAEC2CFCEF33FFEE33FEED20
:100A7E0033FD020B2AE803F830E705C0F075F000ED
:100A8E00EF2FFFEE33FEED33FD40B830E7C280AA04
:100A9E0075F020800E75F010800575F0087D007ED3
:100AAE00007F003392D530D503120BAAEC334010E1
:100ABE00EF33FFEE33FEED33FDEC33FCD5F0ED22DC
:0E0ACE00E5F0247EA2D513CC92E7CDCEFF2218
:100ADC00EDD2E7CD33EC3392D524814006E4FFFE12
:100AEC00FDFC22FCE4CFCECDCC24E0501174FF8071
:100AFC00EDC3CC13CCCD13CDCE13CECF13CF04700E
:070B0C00F030D5DE020BAA58
:100BD8003E9248DA3ECCCCCD3F2AAAAB400000007A
:100BE8003F8000003F9837F03FB504F33FD744FCFF
:100BF8003E3172173EB172173F0515913EDE5BD943
:100C0800D2008002C200EDD2E7F8CD33EC33047095
:100C18000BBD800592D5020B52020B4840FBD31442
:100C280060F2F5F07C3FEE7A00C39496C8948B404E
:100C3800230AC89469C8941A401A0AC89468C894C0
:100C48001F40110AC8945AC89425400805F07A0034
:100C5800CDC2E7CDC0F08C2B8D2C8E2D8F2EEA23A4
:100C680023C0E024E8F582E4340BF583120BC812A4
:100C78000807ECC0E0EDC0E0EEC0E0EFC0E0120B0A
:100C8800B8A82BA92CAA2DAB2E120803D0E0FBD0B4
:100C9800E0FAD0E0F9D0E0B2E7F8120A018C2B8D27
:100CA8002C8E2D8F2E900BD87403120B5DA82BA9B8
:100CB8002CAA2DAB2E1208F8D0E0600F24F4F58290
:100CC800E4340BF583120BC81208078C2B8D2C8E7D
:100CD8002D8F2ED0E0C3947FFDE49400FC120AA36C
:100CE8007B187A727931783F1208F8A82BA92CAAB8
:100CF8002DAB2E12080730000B7BD97A5B79DE7892
:050D08003E1208F82274
:100B1300E9D2E7C933E833F892D5EDD2E7CD33EC28
:070B230033FC5002B2D522A1
:100B2A00EC30E7100FBF000C0EBE00080DBD00042C
:100B3A000BEB6014A2D5EB13FCED92E7FD2274FFD8
:100B4A00FCFDFEFF22E480F8A2D574FF13FC7D8031
:030B5A00E480EF45
:100B5D00C0E0EFFBEEFAEDF9ECF81208F8D0E0F595
:100B6D00F0EFFBEEFAEDF9ECF8120BB8A3A3A3A38B
:100B7D00E8C0E0E9C0E0EAC0E0EBC0E0C0F0120878
:100B8D00F8120BC8A3A3A3A3120807D0F0D0E0FB63
:0D0B9D00D0E0FAD0E0F9D0E0F8D5F0D42295
:03000000020DBE30
:0C0DBE00787FE4F6D8FD75812E020E054A
:0E0BAA00C3E49FFFE49EFEE49DFDE49CFC225C
:100BB800E493FC740193FD740293FE740393FF2283
:100BC800E493F8740193F9740293FA740393FB2283
:100DCA00020E4AE493A3F8E493A34003F68001F2E7
:100DDA0008DFF48029E493A3F85407240CC8C3332A
:100DEA00C4540F4420C8834004F456800146F6DFF9
:100DFA00E4800B0102040810204080900EFBE47E80
:100E0A00019360BCA3FF543F30E509541FFEE493ED
:100E1A00A360010ECF54C025E060A840B8E493A3B4
:100E2A00FAE493A3F8E493A3C8C582C8CAC583CADF
:100E3A00F0A3C8C582C8CAC583CADFE9DEE780BE97
:010F190000D7
:00000001FF
